:020000040800F2
:10000000A00F0020050100084F360008412D000810
:100010004D360008E91500085139000800000000BD
:10002000000000000000000000000000533600083F
:100030008D190008000000005136000855360008F0
:100040001F0100081F0100081F0100081F01000810
:100050001F0100081F0100081F0100081F01000800
:100060001F0100081F0100081F0100081F010008F0
:100070001F0100081F0100081F0100081F010008E0
:100080001F0100081F0100081F0100081F010008D0
:100090001F0100081F0100081F0100081F010008C0
:1000A0001F0100081F0100081F0100081F010008B0
:1000B0001F0100081F0100081F0100081F010008A0
:1000C0001F0100081F0100081F0100081F01000890
:1000D0001F0100081F0100083939000845390008D0
:1000E0001F0100081F0100081F010008DFF810D0E1
:1000F00000F0BAFF0048004799420008AFF30080C3
:10010000A00F00200648804706480047FEE7FEE7AC
:10011000FEE7FEE7FEE7FEE7FEE7FEE7FEE7FEE7B7
:10012000B7360008ED000008202A04DB203A21FA47
:1001300002F00021704721FA02F3D040C2F1200200
:10014000914008431946704738B5D0E90221491E4D
:1001500001EB410102EBC1014268C1EB011102EB6D
:1001600081010268C1EB011102EB8102D0E9043187
:1001700001EB410103EB81013023A1F5527191FBA9
:10018000F3F4174D6C4302EBC41291FBF3F403FB41
:10019000141100921A2902DB124B1A4400920C220D
:1001A00091FBF2F3104C6343009C04EBC3130093E8
:1001B00091FBF2F302FB13110C4A08E0491E40F2D6
:1001C000A324535C6343009C04EBC31300930029F6
:1001D000F4DC0146684600F0EFFD009838BD0000F1
:1001E0003F0C0F008051010067C20300204300084C
:1001F00040EA01039B0703D009E008C9121F08C0A9
:10020000042AFAD203E011F8013B00F8013B521E28
:10021000F9D27047D2B201E000F8012B491EFBD29F
:1002200070470022F6E710B513460A460446194601
:10023000FFF7F0FF204610BD30B505462A460B46B5
:1002400012F8010B13F8014B08B1A042F8D01CB111
:10025000002802D06D1CF1E7284630BD421C10F882
:10026000011B0029FBD1801A7047034611F8012BAE
:1002700000F8012B002AF9D1184670470022CBB2B2
:100280000178994200D10246401C0029F8D110465D
:10029000704700000FB400B58DB010A909900B9005
:1002A00000914FF0FF300A9000200C900548069016
:1002B000054807906A4609A80F9900F0D7FD0DB0D0
:1002C0005DF814FB890E0008A70E00082DE9FF5FFA
:1002D0001D464FF0FF3BD5E9014691465F464FF082
:1002E0000008A9697F1C01988847296A82468847C7
:1002F0000028F6D1BAF1FF3F0CD024F4C064002EE0
:1003000019DD600614D5BAF12B0F09D0BAF12D0F03
:100310000ED103E0584604B0BDE8F09F44F4806479
:10032000A9697F1C01988847761E8246002E02DD4F
:10033000BAF1300F03D0B9F1000F26D032E0A9692D
:10034000761E44F400747F1C019888478246002E74
:1003500005DDBAF1780F06D0BAF1580F03D0B9F124
:10036000000F10D01EE0B9F1000F02D0B9F1100F4C
:1003700018D1A969761E24F400747F1C019888475F
:100380008246102002E0082000E00A20814609E0B1
:1003900008FB0908A969761E44F400747F1C0198C3
:1003A00088478246002E05DD4946504600F04AFD4A
:1003B0000028EDDAE96901988847A00502D46FF0BA
:1003C0000100A8E7E00725D1600613D5600502D536
:1003D000C8F1000000E0404629680A1D2A6009684B
:1003E000220501D5087015E0220701D5088011E02B
:1003F00008600FE02868011D29600068210502D50A
:1004000080F8008006E0210702D5A0F8008001E016
:10041000C0F8008038467EE72DE9FF5FD2E901A7EA
:100420004FF00008916999461446DDF838B0464609
:1004300001988847054659EA0B0005D009E0A169F3
:10044000761C019888470546216A28468847002877
:10045000F5D1681C03D05FEACA7005D015E04FF0F3
:10046000FF3004B0BDE8F09F2068011D2160D0F886
:1004700000800AE05FEACA7001D108F8015BA16957
:10048000761C7F1E019888470546002F1ADD681CE0
:1004900018D0B9F1000F0DD0E81705EBD06042116C
:1004A00020F01F0059F822102A1A01209040014222
:1004B000E0D107E0BBF1000FDCD1216A2846884774
:1004C0000028D7D0E16901988847BBF1000F07D118
:1004D000002E05DD5FEACA7002D1002188F8001005
:1004E000A068B84203DDBBF1000F03D017B16FF075
:1004F0000100B6E73046B4E72DE9FF4F087883B036
:100500009946FF2805D0491C2D2804D0002400203E
:1005100008E000200BE00124F9E700EB800003EB8A
:100520004000491C0B78FF2BF7D104B14042002357
:100530000293147819461D462D2C01D02B2C04D182
:10054000521C2D2C13D000240294AA461478FF2CA0
:100550000FD00A25A3FB057801FB05814FF0000CA5
:1005600003FB0C11521CE3194AEB0101EEE70124D5
:10057000EAE7814453EA010002D019F5C87F06DAA0
:1005800003980021C0E9001107B0BDE8F08F0025F5
:10059000AE4E2F46DFF8B882184600F029FDCDE9AF
:1005A0000001B9F1000002DAC9F1000400E00446DC
:1005B0000023A74A1AEB030B42EB045A12E0E007B0
:1005C00007D02A4633463846414600F044FA0746EB
:1005D00088462A4633461046194600F03CFA05463E
:1005E0000E466410002CEAD1DDE90001B9F1000FDC
:1005F0005A46534606DA00F0A0FA3A46434600F05F
:100600009CFA05E000F027FA3A46434600F023FA48
:10061000029A0AB181F00041039AC2E90001B3E7EE
:100620002DE9FF4F1F468DB0D7E901464FF0FF3847
:100630002E2045464FF000090B90B9696D1C0E98AD
:100640008847396A824688470028F6D1BAF1FF3FC9
:100650000AD024F4D064002E11DDBAF12B0F08D09B
:10066000BAF12D0F0BD102E0404611B08DE744F4F2
:100670008064B9696D1C0E9888478246761E69466B
:10068000600501D52D2000E02B208DF8000001F140
:10069000010B0DF1200809E0B9696D1C0E9888471F
:1006A00082460F9844F40074761E0560002E02DD29
:1006B000BAF1300FF0D00B998A453ED144F0800456
:1006C00006E00F99681CA9F1010944F40074086060
:1006D000B9696D1C761E0E98884782463028F0D086
:1006E0002BE00B998A4505D1200603D444F0800401
:1006F000761E18E0504603F033FA08B30DF11301EB
:10070000761E44F400748B4508D2AAF130000BF831
:10071000010B200607D5A9F1010003E0200602D451
:1007200009F101008146A00502D50F99681C0860F7
:10073000B9696D1C0E9888478246002ED1DC53E0C3
:10074000002E51DDBAF1650F02D0BAF1450F4BD141
:10075000A00549D5B9696D1C24F44074761E0E9825
:1007600088478246002E0CDD2B2804D0BAF12D0FCD
:1007700007D144F48074B9696D1C0E98884782468D
:10078000761EE00501D52D2100E02B2108F8011B84
:10079000CDF82C8021E00DF12901761E44F400747F
:1007A00088450CD2AAF1300010F0FF0088F8000054
:1007B00002D10B99884509D908F1010806E0E00546
:1007C00001D5244801E042F20F708146B9696D1CE1
:1007D0000E98884782460F980560002E04DD50462B
:1007E00003F0BEF90028D6D1F9690E988847FF209A
:1007F0008BF8000088F800000020069007904B4618
:100800006A4608A906A8FFF777FEA00502D46FF094
:1008100001002AE714F0240F0AD0E00714D1DDE923
:1008200006123868031D3B600068C0E900120BE047
:10083000DDE9060100F036FA0146E00704D1386828
:10084000021D3A600068016028460EE7000014406F
:100850000000F03FF1D8FFFFF0B480EA0102D40FAE
:100860004200B2EB410F02D20246084611464A004E
:1008700042D0C30DDDB2C1F3C752AD1A202D35DA17
:10088000C1F3160141F4000204B15242C5F1200641
:1008900002FA06F12A411044B3EBD05F23D0C4B171
:1008A000012DA0EBC35009DCF0BC4FF0004202EA7E
:1008B000C352DBB200F5000000F00FBB400000F1B6
:1008C000807000EBC350A0F1807040EAD170490005
:1008D00009E0490841EAC071A0EBC35000F50000EF
:1008E000400800EBC350F0BC00F0EEBA61420122B8
:1008F00002EB4101001BF6E7F0BC704781F00041BC
:10090000AAE780F00040A7E72DE9FE4F804681EA84
:100910000300C00F0C46009021F0004123F0004579
:10092000B8EB0200A94105D24046214690461C463C
:100930000B46024623F00040104347D0270DC7F373
:100940000A00C3F30A510290401A019040286BDA62
:10095000C3F3130040F4801B0098924620B100239B
:10096000D2EB030A63EB0B0B01985946C0F140022E
:10097000504600F0FAF906460D4650465946019A8F
:1009800000F002FA10EB08006141002487EA1152DE
:1009900084EAE7731A4340D0009A62B3019A012AAD
:1009A0004FEA075215DC001B61EB02014FF00042D9
:1009B00002EA0752CDE90042001C41F5801132469F
:1009C0002B4600F0C7FA03B0BDE8F08F4046214641
:1009D000F9E7001B61EB0201001C41F580130018D0
:1009E0005B412018A2F5001747EB030140EAD570E0
:1009F000B6196D4111E06D084FEA360645EAC0753B
:100A00004FEA0752001B61EB0201001C41F5801107
:100A100049084FEA30000019514132462B4603B0D5
:100A2000BDE8F04F00F087BA009801224000002393
:100A3000D0EB020263EBE073009821464FEAE074CA
:100A4000B8EB000061EB0401E9E783F000435BE7EA
:100A500081F0004158E72DE9FE4F81EA030404F0DC
:100A6000004421F0004100944FF0000B23F00043BC
:100A700050EA01045ED052EA03045BD0C3F30A5487
:100A8000C1F30A552C44A4F2F3340194A0FB0254A0
:100A9000C1F3130141F48011C3F3130343F4801332
:100AA00001FB024400FB034E840A970A44EA815486
:100AB00047EA8357A4FB076802958D0A05FB078563
:100AC0004FEA932C04FB0C542705029D4FEA06586D
:100AD00047EA1637B5EB08056EEB070C870E920E4A
:100AE00047EA811742EA8312A7FB0201B6EB0B012A
:100AF00064EB00042B0D43EA0C335E1844EB1C50EE
:100B0000DA465146E7FB0201C5F313044FEA0B3303
:100B100043EA14534FEA0432019C43EA0603A4F16A
:100B20000C040294009CCDE900B400F013FA03B069
:100B3000BDE8F08F00200146F9E72DE9F04D81EA8C
:100B4000030404F0004B21F0004514464FF0000A66
:100B500023F0004150EA050220D054EA01021DD0E2
:100B6000C5F30A570246C5F31303C1F31300C1F3DB
:100B70000A5640F4801543F48013A7EB0608101BB7
:100B8000D64608F2FD3873EB050002D308F10108E0
:100B900001E092185B41B8F1000F03DA0020014632
:100BA000BDE8F08D00204FF48011064684460EE02B
:100BB000171B73EB050705D3121B63EB05030643F5
:100BC0004CEA010C49084FEA300092185B4150EAA8
:100BD0000107EDD152EA030012D082EA040083EA51
:100BE0000501084305D0101BAB4106D201220023AA
:100BF00006E000224FF0004302E06FF001025310C4
:100C00001AEB06004CEB085110EB0A0041EB0B010C
:100C1000BDE8F04D00F08FB9C10F80EAE0700844E4
:100C2000CA079623002100F058B90EB5C10F80EA1B
:100C3000E0700844CA07002140F233438DE80E00FB
:100C40000A460B4600F086F903B000BD00F00042F2
:100C500020F00040C10DC0F3160040F400007F29D1
:100C600001DA00207047962903DCC1F19601C840E3
:100C700001E096398840002AF4D04042704700F0E5
:100C8000004230F000400AD0C10D01F56071C0F3A0
:100C9000160042EA0151C208400711437047002084
:100CA0000146704701F0004330B421F0004150EAA2
:100CB000010206D00A0DA2F56072C1F31301002AE9
:100CC00002DC30BC00207047440F44EAC104C1007C
:100CD000E01830BC00EBC25000F0F6B830B50B465F
:100CE000014600202022012409E021FA02F59D425C
:100CF00005D303FA02F5491B04FA02F52844151E30
:100D0000A2F10102F1DC30BD2DE9F05F05460020C3
:100D100092469B4688460646814640241BE028466C
:100D2000414647462246FFF7FFF953465A46C01A46
:100D3000914110D311461846224600F016F82D1A9C
:100D400067EB01084F4622460120002100F00DF814
:100D500017EB00094E41201EA4F10104DFDC4846D8
:100D600031462A464346BDE8F09F202A04DB203A5C
:100D700000FA02F1002070479140C2F1200320FAEE
:100D800003F3194390407047202A06DBCB17203A23
:100D900041FA02F043EAE07306E041FA02F3D04080
:100DA000C2F120029140084319467047014900F002
:100DB00003B80000740B002010B500683C22B0FBA3
:100DC000F2F302FB1303B0FBF2F00B60B0FBF2F3A3
:100DD00002FB1303B0FBF2F018224B60B0FBF2F3FE
:100DE00002FB1303B0FBF2F0021D8B600723B2FB82
:100DF000F3F403FB1422800040F2B55300F66C308C
:100E00008A61B0FBF3F2B0FBF3F403FB140044324D
:100E100080084A61C8613B2802D3920700D0401C79
:100E20000022074C13460A61E25C824203D8801A12
:100E30005B1C0B61F8E7401CC860084610BD000051
:100E40002C4300083A2800D2303820F02002412AF2
:100E500001D3A2F13700884201D34FF0FF30704731
:100E6000026811441378016018467047D160044944
:100E700051610449116200211161114600F00CB961
:100E8000610E00088D100008426842B1016811F837
:100E9000013B23B1521EC0E90012184670470121E0
:100EA000C160881E704742685AB1C368016843B97F
:100EB00083688B4205D0491E521CC0E900120020F5
:100EC00070474FF0FF3070470029A8BF7047401CA3
:100ED000490008BF20F00100704710B4B0FA80FC50
:100EE00000FA0CF050EA010404BF10BC704749B18D
:100EF000CCF1200421FA04F411FA0CF118BF0121FD
:100F000021430843A3EB0C01CB1D4FEA00614FEADC
:100F1000102042BF002010BC704700EBC3501044AB
:100F20000029A4BF10BC7047401C490008BF20F036
:100F3000010010BC704710B5141E73F1000408DAEC
:100F4000401C41F1000192185B411A4301D120F08D
:100F5000010010BD2DE9F04D92469B4611B1B1FA4A
:100F600081F202E0B0FA80F220329046FFF7FDFEF7
:100F700004460F4640EA0A0041EA0B0153465A462E
:100F8000084313D0114653EA010019D0C8F14002BA
:100F90005046FFF7C9F805460E46504659464246A8
:100FA000FFF7E3FE084305D0012004E02046394660
:100FB000BDE8F08D0020054346EAE0762C43374338
:100FC0000A986305E40AA0EB08000022FD0A44EA3F
:100FD00047540A3002D500200146E9E701051019FF
:100FE0006941DDE9084500196941BDE8F04DA2E716
:100FF0000EB540F2334202920022CDE900221346A0
:10100000FFF7A8FF03B000BDC1F30A52C1F31301FB
:1010100040F2FF3341F480119A4202DA0020014687
:10102000704740F233439A42A2F2334202DC52420A
:10103000FFF77AB8FFF799BE30B5041E71F10004CE
:1010400004DB4FF00044404264EB0101141E73F1D5
:10105000000405DB1C464FF00043524263EB0403DF
:10106000994208BF904230BD064C074D06E0E0684B
:1010700040F0010394E8070098471034AC42F6D3DF
:10108000FFF738F83C4600085C460008C0B24FF451
:10109000F05100F099B900002DE9F34F8BB04FF0FB
:1010A000000801F10C000C464FF0010B46460DF113
:1010B000080A01906269012101989047051E2DD010
:1010C000252D2CD0216A8847C0B162690121019881
:1010D0009047216A88470028F7D1411E626901982C
:1010E000904700E0761CA1690B988847216A8847E1
:1010F0000028F7D1E1690B988847DBE7A1690B98D5
:1011000088470746A84201D1761CD3E7E1690B98CE
:1011100088477F1C02D1B8F1000F6FD047E100274C
:1011200062693D463946019890472A2804D1626990
:101130000121019890470125DFF888926269012119
:1011400001989047A0F130010A290AD24F45E5DC09
:1011500007EB870100EB4107303FDFD445F0100576
:10116000ECE7E90601D46FF000476C280AD04C2860
:1011700014D0682815D06A280DD074281CD07A287D
:101180001AD01DE062690121019890476C2802D0B5
:1011900045F0040514E045F002050DE045F020059A
:1011A0000AE06269012101989047682802D045F061
:1011B000080505E045F40065626901210198904742
:1011C000C4E9015765283DD019DC58287AD00CDCD9
:1011D000452837D004DC252826D0412831D131E0FC
:1011E00046282FD047282CD12CE05B2877D06128C7
:1011F00028D063287CD0642823D15AE0D1E06F281E
:1012000048D008DC66281DD067281BD0692821D06B
:101210006E2816D127E0702845D0732868D075282D
:1012200047D078280DD14DE0A1690B988847054635
:1012300025283FF469AFE1690B9888476D1C3FF49E
:101240006AAFB4E023466A466FF001000B99FFF7DE
:10125000E7F99FE045F040006060A80723464FF0A3
:10126000000236D43EE0E8077FF447AF2068011D56
:1012700021600068290501D506701BE7290701D503
:10128000068017E7A90703D5F117C0E9006111E748
:1012900006600FE745F040006060A80723464FF066
:1012A000080216D41EE040F60E0125EA0100606037
:1012B00016E045F040006060A80723464FF00A02A0
:1012C00007D40FE045F040006060A80708D523462A
:1012D00010226FF001000B99AFF300805AE007E095
:1012E000234610226FF001000B99FEF7EFFF51E04B
:1012F0004FF000094F464B46632802D05B2807D0C9
:1013000041E02079C00601D40120A06001273AE025
:1013100062690121019890475E2805D14FF00109CB
:101320006269494601989047216939B900210A4606
:10133000534643F82120491C0829FADBB0B3216940
:1013400069B9C11700EBD16253110AEB830122F096
:101350001F02821A01200B68904003430B606269F0
:101360000121019890475D28E8D1B9F1000F09D01B
:101370000020514651F82020D24341F82020401C43
:101380000828F7DB02AB224600976FF001000B99AB
:10139000FFF742F800280CDA401C08D1BBF1000F1F
:1013A00005D04FF0FF300DB0BDE8F08FFFE74046AD
:1013B000F9E7E90701D108F1010806444FF0000BF5
:1013C00078E60000CCCCCC0C7F2801D9002208E0C4
:1013D000064A02EB5002C007127800D1120902F04F
:1013E0000F02012090400840704700003843000879
:1013F00030B58FB0044600F0C3F830A12046FEF7A8
:101400001BFF002504468DF838500EAA2DA1FEF7CB
:1014100041FF9DF8380041284DD12F490DF1080CAE
:10142000081F0A950B950C950AAB0D958CE80B00DF
:10143000021F0838CDE90002031F0CAA27A120468D
:10144000FEF728FF9DF832000DF1180C9DF835309D
:101450009DF834209DF833108CE80F009DF828008B
:101460000DF1080C9DF831309DF830209DF82910C1
:101470008CE80F009DF82B109DF82A00CDE90001A3
:1014800015489DF82D309DF82C201EA1243802F01F
:1014900071FA114C243C2146E574657684F821509C
:1014A000084600F031FA606900F0B4F86061E06964
:1014B00000F0B0F8E0610FB030BD000024474E529C
:1014C0004D43000024474E524D432C252A5B5E2C91
:1014D0005D2C2563000000006C0B002024474E5259
:1014E0004D432C253663252A36632C25662C25632F
:1014F0002C25662C25632C25662C252A662C253662
:10150000630000003230256325632D256325632D9C
:101510002563256320256325633A256325633A25E2
:101520006325630010B501F0D1FE01F05DFEBDE85A
:10153000104001F045BF00000F4D0E4E88B005F180
:1015400010040C490D4801F01BFE308810B10B4807
:10155000FFF74EFF01F0AAFEA8621C222146684652
:10156000FEF746FE95E80F0000F096F8022000F026
:101570003CF8E6E716000020480B00204807002052
:101580002DE9F0438FB0382215496846FEF730FE4A
:101590004FF4806841461348FEF743FE0024254679
:1015A000DFF840906E4614E0FEF758FE0246A7189A
:1015B000474512D256F8251009EB0400FEF718FE35
:1015C000781C3C46404503D20A2109F804107C1CD3
:1015D0006D1C56F825000028E6D10FB0BDE8F08359
:1015E000E842000848070020FEE770B504464FF4C3
:1015F0007A7502E0284600F03BFA641EFAD270BD0C
:1016000010B5044602E0012000F032FA641EFAD25E
:1016100010BD00002DE9F0410446FFF717FB064618
:10162000642590FBF5F06843FFF7F6FA2146FFF7D3
:1016300068F9FFF724FB0022084BFFF77EFA044607
:1016400096FBF5F00F46FFF7F0FA3B462246FFF710
:101650005BF9BDE8F041FFF725BB000000004E40FC
:101660000A4645280BD04E2807D0532809D05728C2
:1016700009D105A11046FEF7F8BD04A1FAE704A1BF
:10168000F8E704A1F6E77047CEF70000B1B100001B
:10169000B6AB0000C4CF00000FB430B585B0002059
:1016A0000290039004905C2168A0FEF7E7FD08B16A
:1016B0005C2105E02F2165A0FEF7E0FD28B12F2178
:1016C00062A0FEF7DBFD401C00E060A0014608AB15
:1016D000422264A002F03EF90D98FFF7D0FA0446CA
:1016E0000D465C2159A0FEF7C9FD08B15C2105E05B
:1016F0002F2156A0FEF7C2FD28B12F2153A0FEF7DF
:10170000BDFD401C00E051A0014643225AA0CDE996
:10171000004502F01FF99DF8380002A9FFF7A0FF6D
:101720005C214AA0FEF7AAFD08B15C2105E02F214B
:1017300046A0FEF7A3FD28B12F2144A0FEF79EFD91
:10174000401C00E041A0014602AB45224FA002F040
:1017500001F90F98FFF793FA04460D465C213BA070
:10176000FEF78CFD08B15C2105E02F2137A0FEF7C4
:1017700085FD28B12F2135A0FEF780FD401C00E03B
:1017800032A00146462247A0CDE9004502F0E2F82A
:101790009DF8400002A9FFF763FF5C212BA0FEF734
:1017A0006DFD08B15C2105E02F2128A0FEF766FD44
:1017B00028B12F2125A0FEF761FD401C00E023A0E9
:1017C000014602AB48223CA002F0C4F81198FFF792
:1017D00056FA3F4A3F4BFFF73EF904460D465C215F
:1017E0001AA0FEF74BFD08B15C2105E02F2117A0E0
:1017F000FEF744FD28B12F2114A0FEF73FFD401C49
:1018000000E012A00146492233A0CDE9004502F0D4
:10181000A1F85C210DA0FEF731FD08B15C2105E0C7
:101820002F210AA0FEF72AFD28B12F2107A0FEF7DD
:1018300025FD401C00E005A001464A222CA0129B79
:1018400002F088F805B030BC5DF814FB2E2E5C4326
:101850006F6D5C5372635C436F6D5F5574696C2E82
:10186000630000005B25733A25645DC8D5C6DA3A8B
:10187000202573200A0000005B25733A25645DCEA5
:10188000B3B6C83A202566200A0000005B25733AEB
:1018900025645DCEB3B6C8B7BDCFF23A202573201C
:1018A0000A0000005B25733A25645DBEADB6C83AF8
:1018B000202566200A0000005B25733A25645DBE82
:1018C000ADB6C8B7BDCFF23A202573200A0000009C
:1018D0006F1283C0CAA1FD3F5B25733A25645DCBBF
:1018E000D9B6C83A202566206B6D2F680A00000023
:1018F0005B25733A25645DB2BDCAFD3A20256C6450
:1019000020B2BD200A00000030B591B00C4604ADF5
:1019100006AA07AB291DCDE90032CDE9021508ABB7
:1019200009AA12A1FEF7B6FC0998A0F26C70099002
:101930000898401E089004A8FEF706FC00F5E14058
:101940000F900FA8FFF732FA90E82E00CDE90221A0
:10195000CDE90053D0E9043204A1204602F26C72B2
:101960005B1C02F007F811B030BD00002530346474
:101970002D253032642D2530326420253032643AF2
:10198000253032643A25303264000000704772B668
:10199000FEE710B590F821100022022905D004219D
:1019A000816380F82020012010BD01680B6823F0BE
:1019B0000E030B6001680B6823F001030B6090F8C5
:1019C0004030C46B012101FA03F3636080F82110F9
:1019D00080F82020104610BD10B590F8211000248A
:1019E000022903D00421816301243DE001680A68D3
:1019F00022F00E020A6001680A6822F001020A6001
:101A00001A4A0168914201D1012121E0174A14329A
:101A1000914201D110211BE0144A2832914201D198
:101A2000891515E0114A3C32914201D189140FE029
:101A30000E4A5032914202D14FF4803108E00B4AF5
:101A40006432914202D14FF4801101E04FF0807175
:101A5000064A083A5160012180F82110002180F8DF
:101A60002010416B01B18847204610BD080002409C
:101A700070B5044600F004F90546601C02D0044825
:101A80000078044400F0FCF8401BA042FAD370BD7B
:101A9000000000202DE9F84FDFF8B8910024A9F1EB
:101AA000040B23460F2709F1040AABF1040EC9E029
:101AB0000125A5402A40AA427DD1674ED1F804C035
:101AC000ACEB0608B44532D014DCBCF1030F3AD0BD
:101AD00009DCBCF1000F2AD0BCF1010F1CD0BCF115
:101AE000020F31D11DE0BCF1110F17D0BCF1120F64
:101AF0002AD119E0B8F5881F19D006DCB8F5803F67
:101B000015D0B8F5801F1FD111E0B8F5001F0ED019
:101B1000B8F5041F18D10AE0CB6815E0CB681B1D8F
:101B200012E0CB6808330FE0CB680C330CE08B6815
:101B30002BB1012B4FF0080303D0456104E00423CF
:101B400002E0056100E00023FF2A01D8064601E01B
:101B500000F104064FEA840501D9A5F12005D6F865
:101B6000008007FA05FC28EA0C0803FA05F548EAA4
:101B70000508C6F800804D68ED0062D5374DAE69A6
:101B800046F00106AE61AD6924F0030605F00105DB
:101B90000095334D06EB050CDCF80850A607360F10
:101BA00007FA06F825EA0805DFF8B880404503D1B2
:101BB0004FF0000817E044E0DFF8AC80404502D168
:101BC0004FF001080FE0DFF8A480404502D14FF04C
:101BD000020808E0DFF89880404502D14FF0030882
:101BE00001E04FF0040808FA06F848EA0508CCF8C6
:101BF00008804D68D9F80060ED024D4601D51643C6
:101C000000E096432E604D68DAF80060AD0255465C
:101C100001D5164300E096432E604D68DBF8006066
:101C2000AD035D4601D5164300E096432E604D6836
:101C3000DEF80060ED03754601D5164300E09643DB
:101C40002E60641C0D682A46E5407FF431AFBDE884
:101C5000F88F00000804014000001110001002403D
:101C60000000014000080140000C0140001001404C
:101C7000001401400AB1016170470904FBE700004C
:101C800001488068704700000000002070B5040023
:101C900025D094F83D00002520B984F83C5020461A
:101CA00000F07EFA242084F83D002068016821F0CD
:101CB000010101602068016841F400410160206871
:101CC000016821F40041016000F0C6FB4D4A6168E3
:101CD000914201D84C4900E04C49884201D2012090
:101CE00070BD4B492368B0FBF1F15E6826F03F06FA
:101CF0000E435E606368934206D94FF4967359436E
:101D00004FF47A73B1FBF3F12368491C1E6A26F085
:101D10003F06314319626168914210D84900401E64
:101D2000B0FBF1F2521CC2F30B02042A01D20420D0
:101D300022E0B0FBF1F0401CC0F30B001CE0A268F5
:101D4000F2B301EBC10303EB0116431EB3FBF6F341
:101D50005B1C43F480431B0549D092B301EBC102E5
:101D600002EB0111401EB0FBF1F0401CC0F30B0070
:101D700040F4804040F400402168CA694CF6FF738B
:101D80009A431043C861D4E90710014320680268F0
:101D900022F0C00211430160D4E90301014320682D
:101DA000826848F2FF339A4311438160D4E9050108
:101DB00008432168CA6822F0FF021043C86001E0AE
:101DC0000EE016E02068016841F001010160256421
:101DD000202084F83D00256384F83E50002070BD2B
:101DE00001EB4106431EB3FBF6F35B1CB3E7012096
:101DF000C2E701EB4101401EB0FBF1F0401CC0F313
:101E00000B00B7E7A086010080841E0000093D009A
:101E100040420F002DE9FF4F83B00025DDE9107926
:101E20009A4693460446DDF848800095FFF728FF60
:101E3000064694F83D0020287CD1192301228849C8
:101E40002046009601F092F80028F5D194F83C0065
:101E500001286FD0012084F83C0020680168C90780
:101E600003D1016841F0010101602068016821F49B
:101E700000610160222084F83D00402084F83E008B
:101E800025646762A4F82A90608D20857548E06219
:101E9000CDE9008653465A462046049900F068FF73
:101EA00000287CD1208DDFF8C091202768B101285F
:101EB00014D00228206801681ED041F480610160BE
:101EC0002068416980690090BCE0206841698169AF
:101ED0000091016841F400710160B3E0206801687D
:101EE00021F48061016072B62068416981690091C6
:101EF000016841F400710AE041F40061016072B6CA
:101F00002068416981690091016821F48061016064
:101F100062B697E0032865D801280CD00228434612
:101F20004FF000024946204600960BD001F01EF803
:101F3000A8BB0CE091E032464146204601F0BCF8D7
:101F400068BB72E001F012F848BB72B633E020685B
:101F5000016821F48061016072B620680069616ADD
:101F60000870606A401C6062208D401E2085608D74
:101F7000401E60853D4846F2A8110068B0FBF1F0B4
:101F8000C0EBC00000EB80000090401E009007D026
:101F900020684069C04340070DD50098F5E727E069
:101FA00044F8305F6773A573206940F0200020611A
:101FB00062B625731CE02068016841F4007101607D
:101FC00020680069616A0870606A401C6062218D47
:101FD000491E2185618D491E618562B621680969A6
:101FE000017026E032464146204601F065F818B1FE
:101FF000012007B0BDE8F08F20680069616A0870B1
:10200000606A401C6062208D401E81B22185608D17
:10201000401E608520684269D243520712D40329CA
:1020200003D1016821F48061016020680069616A60
:102030000870606A401C6062208D401E2085608DA3
:10204000401E6085208D00287FF464AF84F83D70C9
:1020500084F83E5084F83C50CBE70220C9E70000EA
:10206000020010000000FFFF040001000C0000202F
:102070002DE9FF4F83B09A46DDE911979346044658
:10208000DDF84080FFF7FCFD054694F83D00202870
:102090007FD11923012240492046009500F066FFB8
:1020A000002876D194F83C00012872D0012084F8F1
:1020B0003C0020680168C90703D1016841F00101B3
:1020C00001602068016821F400610160212084F82A
:1020D0003D00402084F83E0000262664C4F8248099
:1020E000A4F82A90608D20852C48E062CDE9007527
:1020F00053465A462046049900F0B8FE70B930E0C5
:102100002A463946204601F00FF858B1206C0428C1
:1021100004D12068016841F400710160012007B01A
:10212000BDE8F08F606A216800780861606A401C31
:102130006062218D491E89B22185628D521E6285A1
:1021400022685369DB435B070BD469B100781061E7
:10215000606A401C6062208D401E2085608D401E9C
:102160006085208D0028CBD12A463946204600F0D4
:10217000D1FE0028CAD154F83D0B016841F400712A
:102180000160202004F81E09E67766770020C6E784
:10219000FFE70220C3E70000020010000000FFFF7D
:1021A00010B586B000210091019102910391006861
:1021B0000F4988421AD10F4CA06940F00800A06175
:1021C000A069694600F008000490C0200090122029
:1021D0000190032003900848FFF75CFCE06940F49D
:1021E0000010E061E06900F40010049006B010BD3A
:1021F0000054004000100240000C01400248816879
:10220000027811448160704700000020074810B533
:10221000016841F010010160032000F075F8002012
:1022200000F006F800F024F8002010BD0020024065
:1022300070B50D4D04464FF47A712878B1FBF0F07B
:102240000A490968B1FBF0F000F0DCFA48B9102C3B
:1022500007D200222146501E00F036F800206C60A4
:1022600070BD012070BD0000000000200C000020A7
:102270000C4808B5816941F001018161816901F073
:1022800001010091C16941F08051C161C06900F054
:10229000805000900448416821F0E06141F00071F5
:1022A000416008BD0010024000000140002809DB29
:1022B00000F01F02012191404009800000F1E02060
:1022C000C0F8001170470000F0B40E4B1B680C46BC
:1022D000C3F30223C3F10705042D00D90425191DFA
:1022E000072901D2002300E0DB1E012606FA05F1D2
:1022F000491E214099409E40761E16403143F0BC55
:1023000001F04CBB0CED00E0064900F00702086844
:102310004FF6FF03184040EA0220034A10430860CA
:10232000704700000CED00E00000FA052DE9F047D1
:102330000F46050061D0434E306800F00700B842F8
:1023400009D2306820F0070038433060306800F070
:102350000700B84251D128683B4C810712D540078D
:1023600003D5606840F4E06060602878000703D51A
:10237000606840F4605060606068A96820F0F00018
:10238000084360602878C00728D06868012810D00A
:102390002168022810D0890700292EDA616821F00F
:1023A000030101436160FFF76BFC804641F288390D
:1023B0000DE021688903EFE78901EDE7FFF760FC95
:1023C000A0EB0801494502D90320BDE8F087606809
:1023D000696800F00C00B0EB810FEFD1306800F0BD
:1023E0000700B8420BD9306820F00700384330604E
:1023F000306800F00700B84201D00120E5E72878F6
:10240000400705D56068E96820F4E0600843606033
:102410002878000706D56068296920F4605040EAF2
:10242000C100606000F038F86168084AC1F3031128
:10243000515CC8400649086006480068FFF7F8FE8E
:102440000020C2E70020024000100240D0420008F5
:102450000C00002004000020044805490068496879
:10246000044AC1F30221515CC84070470C000020AF
:1024700000100240E042000804480549006849682D
:10248000044AC1F3C221515CC84070470C000020CF
:1024900000100240E04200080E4A51680E4801F068
:1024A0000C03042B11D0082B0FD10C48C1F383432C
:1024B000C903C05C0AD55168084AC1F34041921E65
:1024C000515C054A5043B0FBF1F070470449484362
:1024D000704700000010024000127A00C04200085D
:1024E00000093D002DE9F84F040070D02078C04D60
:1024F000C00749D06868C0F38100012807D0686828
:10250000C0F38100022809D16868C00306D5286895
:10251000800339D560680028E7D035E06068B0F501
:10252000803F0BD010B1B0F5A02F11D0286820F457
:1025300080302860286820F4802002E0286840F479
:1025400080302860606890B1FFF79AFB06460AE089
:10255000286840F480202860F0E700BFFFF790FB78
:10256000801B642873D828688003F7D50CE0FFF738
:1025700087FB064605E000BFFFF782FB801B64284F
:10258000F0D828688003F7D420789A4E80074FF05F
:1025900001094FF0000839D5686810F00C0F07D01A
:1025A0006868C0F38100022809D16868C00306D4B6
:1025B0002868800714D52069012808D110E0206917
:1025C000B0B1C6F80090FFF75BFB074605E00AE1F3
:1025D000FFF756FBC01B0228C4D828688007F7D530
:1025E0002868616920F0F80040EAC10028600DE029
:1025F000C6F80080FFF744FB074604E0FFF740FB06
:10260000C01B022823D828688007F7D42078000749
:102610002CD57948A169D9B1C0F80090FFF730FBFB
:10262000074604E0FFF72CFBC01B02280FD8686A9E
:102630008007F7D571484FF4FA510068B0FBF1F00C
:10264000009000BF0098411E0091FAD20EE080E099
:10265000C0F80080FFF714FB074604E0FFF710FB0B
:10266000C01B022875D8686A8007F7D42078400715
:1026700060D5E8690027C00008D4E86940F08050C0
:10268000E861E869012700F0805000905C4801682B
:10269000C90513D40168834641F480710160FFF7D6
:1026A000EFFA824606E000BFFFF7EAFAA0EB0A0065
:1026B00064284ED8DBF80000C005F5D5E068012895
:1026C0000AD008B1052813D0286A20F0010028623A
:1026D000286A20F0040002E0286A40F00100286225
:1026E000E06841F2883B98B1FFF7CAFA82460BE0F6
:1026F000286A40F004002862EEE700BFFFF7C0FA46
:10270000A0EB0A0159455AD8286A8007F6D50CE093
:10271000FFF7B6FA824605E0FFF7B2FAA0EB0A012E
:1027200059454CD8286A8007F6D41FB1E86920F0D3
:102730008050E861E06988B36968C1F381010229CA
:1027400044D00228C6F8608004D0FFF799FA044606
:1027500038E034E0FFF794FA074604E0FFF790FA18
:10276000C01B02282BD828688001F7D4206AB0F556
:10277000803F05D16868A16820F400300843686094
:10278000D4E908010843696821F4741108436860BA
:10279000C6F86090FFF774FA044606E025E000BF33
:1027A000FFF76EFA001B022809D828688001F7D5C8
:1027B0001BE000BFFFF764FA001B022802D90320C8
:1027C000BDE8F88F28688001F4D40EE00128F7D026
:1027D0006868226A00F48031914204D1616A00F491
:1027E0007010884201D00120EAE70020E8E70000ED
:1027F0000010024000004242800442420C000020CF
:102800000070004010B5401EB0F1807F01D3012060
:1028100010BD4FF0E02460610F21601701F0BEF899
:102820000020A06107202061002010BD18B50346DC
:1028300090F84200202801D0022018BD61B15AB1A1
:102840000120186300205863184601F021F8002881
:10285000F3D1196B012901D0012018BD19680A684C
:102860004968009119680C3151E8002F42F01002BC
:1028700041E80024002CF5D118BD00000068064A8C
:10288000904202D1084600F099BC044A904202D11D
:10289000084600F07FBD70470044004000480040FB
:1028A00070470000F8B5016804460868CA684B69BB
:1028B00010F00F0F4FF0000559D003F0010602F49D
:1028C0009077374365D0C10705D0D10503D5616C3A
:1028D00041F001016164410705D5D90703D0616C5E
:1028E00041F002016164810705D5D90703D0616C0D
:1028F00041F004016164010707D502F02001314372
:1029000003D0616C41F008016164616C00293AD028
:10291000800604D5900602D5204600F0FCFE206813
:102920004069616CC0F38010090700D460B3204691
:1029300000F0CAFE20684069400621D520681430A6
:1029400050E8001F21F0400140E80012002AF5D1B4
:10295000E06BA8B16D494163E06BFFF73DF80028DB
:1029600011D0E06B416B01B0BDE8F0400847830631
:102970000FD593060DD52046BDE8F84000F0CBBE3C
:102980002046FFF78DFFF8BD2046FFF789FF6564FD
:10299000F8BD266B2023012E7CD1C6067AD5D6063B
:1029A00078D508684868009048694FF002064006EC
:1029B00040D5E16B086840680004000CE8D0A28DA7
:1029C0008242E5D9E085886920282DD020680C3026
:1029D00050E8001F21F4807140E80012002AF5D170
:1029E0002068143050E8001F21F0010140E8001277
:1029F000002AF5D12068143050E8001F21F0400172
:102A000040E80012002AF5D184F84230256320689E
:102A10000C3050E8001F21F0100140E80012002A9D
:102A2000F5D1E06BFEF7B5FF6663A08DE18D401A2E
:102A300081B22AE0A08DE18D401A81B2E08D00289C
:102A4000A6D00029A4D022680C3252E8000F20F44E
:102A5000907042E80007002FF5D12068143050E84C
:102A6000002F22F0010240E80027002FF5D184F862
:102A70004230256320680C3050E8002F22F010020D
:102A800040E80023002BF5D166632046FFF7F6FEF1
:102A9000F8BDFFE705062BD5150629D594F84100AA
:102AA0002128F5D1A068B0F5805F01D12069B0B1CF
:102AB000206A411C2162216800784860E08C401E39
:102AC0000004000CE084E3D12068C16821F080019B
:102AD000C1602068C16841F04001C160D8E7206A48
:102AE0000088C0F308004860206A801C2062E5E787
:102AF0004006CDD55006CBD5CA68204622F040020C
:102B0000CA6084F8413000F01AF9C1E7B93600080C
:102B100070B5040004D094F84100002510B106E01F
:102B2000012070BD84F84050204600F023F8242096
:102B300084F841002068C16821F40051C16020463A
:102B400000F04AFE2068016921F49041016120688B
:102B5000416921F02A0141612068C16841F40051B6
:102B6000C1606564202084F8410084F842006563F8
:102B7000002070BDF0B585B000240094019402944B
:102B8000039403683F4F02203F4903223F4D460212
:102B9000BB4220D18B6943F480438B618B6903F482
:102BA000804304938B6943F004038B61896903922A
:102BB00001F0040104910102CDE9001069462846A4
:102BC000FEF768FFCDE90064694628460294FEF7E7
:102BD00061FF05B0F0BD2E4FBB4226D1CB6943F457
:102BE0000033CB61CB6903F4003304938B6943F06A
:102BF00004038B618969039201F0040104910421AB
:102C0000CDE9001069462846FEF744FF0820CDE9CB
:102C10000004694628460294FEF73CFF0022072183
:102C20002620FFF751FB262028E01A4DAB42D0D1D9
:102C3000CB6943F48023CB61CB6903F480230493F5
:102C40008B6943F008038B618969134D01F008011A
:102C5000CDE90321CDE9006069462846FEF71AFF59
:102C6000E814CDE90004694628460294FEF712FFF5
:102C7000002207212720FFF727FB2720FFF716FB5D
:102C8000A7E70000003801400010024000080140A2
:102C90000044004000480040000C014070472DE90E
:102CA000F843044690F84100984616460D46202801
:102CB00002D00220BDE8F88385B17EB100206064B7
:102CC000212084F84100FEF7DBFFA6848146E684DC
:102CD000A0682027B0F5805F02D003E00120E9E77B
:102CE000206910B12E4600250EE000260CE0802160
:102CF000204600F0E8FDA8B9C6B116F8010B21681E
:102D00004860E08C401EE084E08C4B464FF00002AF
:102D1000CDF800800028EAD14FF04001204600F0B5
:102D2000D2FD40B184F841700320C3E735F8020BAF
:102D3000C0F30800E3E784F841700020BAE7704769
:102D4000FEE701684A69D24352050FD46FF48062EE
:102D50004A61002140F8301F2022427381730269CA
:102D600042F00402026101730120704700207047A5
:102D70002DE9F84F0446006889460B9D0168984686
:102D8000174641F4806101602068016841F4807158
:102D9000016000954FF0011B0022594620460A9B16
:102DA00000F0E4F84FF4007A40B120680068C005F4
:102DB00001D5C4F840A00320BDE8F88F216809F0D0
:102DC000FE0008612B46284920460A9A00F016F9B1
:102DD000F0BB20684169806900902A4620460A9924
:102DE00000F0A2F940B1206C04283AD120680168B3
:102DF00041F40071016034E0FEB2B8F1010F09D076
:102E00002168380A08612A4620460A9900F08CF9A0
:102E10000028E8D1206806612A4620460A9900F079
:102E200083F90028DFD12068016841F480710160D6
:102E300000950022594620460A9B00F097F800288A
:102E4000B3D1216809F0FF0040F00100086100E003
:102E500007E02B46044920460A9A00F0CFF80028E4
:102E6000AAD00120A8E70000020001002DE9F843E4
:102E7000044600680D46DDE9089701689846164645
:102E800041F4807101604B4600224FF00111204651
:102E9000009700F06BF848B120680068C00502D5C3
:102EA0004FF4007020640320BDE8F883216805F02A
:102EB000FE0008613B464A461549204600F09EF850
:102EC00088B920684169806900903A4649462046A1
:102ED00000F02AF948B1206C042804D12068016868
:102EE00041F4007101600120DEE7F5B2B8F1010F95
:102EF00009D02168300A08613A464946204600F068
:102F000013F90028E7D1206805610020CCE7000014
:102F10000200010070B516460D4604461EE020462C
:102F2000FFF70FFF08B1012070BD681C16D0FEF737
:102F3000A7FE801BA84200D885B920684069C0431D
:102F400040070BD5002044F8300F20216173A07397
:102F5000216941F0200121612073E4E72068406984
:102F6000C0434007DBD4002070BD00002DE9F047CE
:102F7000984617460D460446C1F30746DDF82090F3
:102F80002AE000BFB8F1FF3F26D0FEF779FEA0EBA4
:102F90000901414502D8B8F1000F1DD12068012E6A
:102FA00016D0806925EA00000004000C12D0002031
:102FB000B84211D1002044F8300F20216173A07372
:102FC000216941F02001216120730120BDE8F087D3
:102FD0004069E7E70120EBE72068012E0AD080690D
:102FE00025EA00000004000C06D00020B842C9D039
:102FF0000020EBE74069F3E70120F7E72DE9F04710
:10300000984616460D4604464FF000094FF0200A38
:10301000C1F3074723E020684069C043400515D449
:103020002068016841F40071016021686FF48060DC
:103030004861C4F8309084F83DA084F83E90216C3B
:1030400041F00401216484F83C9021E0701C06D01A
:10305000FEF716FEA0EB0800B04203D816B1012F10
:103060001FD021E02068012F15D0806925EA0000DB
:103070000004000C18D000BF44F8309F84F80DA065
:1030800084F80E90216941F02001216184F80C90B0
:103090000120BDE8F087406925EA00000004000C2B
:1030A000EAD12068406901E02068806925EA0000D3
:1030B0000004000CAFD1ECE72DE9F041002590466B
:1030C0000E460446202728E04069C043C0060CD4C1
:1030D00054F8301B6FF01000486144F810596777BE
:1030E000A577206A2062257714E0FEF7C9FDA0EBE2
:1030F0000800B04200D886B920684069C043400645
:103100000BD544F8305F6773A573206940F0200049
:10311000206125730120BDE8F08120684169C94321
:103120004906D1D40020F6E770B516460D46044690
:103130001EE02046FFF705FE08B1012070BD681CA7
:1031400016D0FEF79DFD801BA84200D885B92068E7
:103150004069C04300060BD5002044F8300F202101
:103160006173A073216941F0200121612073E4E7BC
:1031700020684069C0430006DBD4002070BD000019
:103180002DE9F0410D4607460988FDF74AF8094C3C
:1031900000262E802288002A0AD007493846FDF7EB
:1031A00027F82088288021880348FDF73AF82680F0
:1031B000BDE8F0811000002048010020074910B54B
:1031C0000880002808D04FF480642246044905484E
:1031D000FFF72CFB0028F8D110BD000010000020E4
:1031E00048010020B800002010B5012208210E4837
:1031F000FEF740FD0520FEF7F8F908210BA000F0CE
:103200002BF80B210CA000F027F808210DA000F0EE
:1032100023F84FF4806422460D490E48FFF706FB61
:103220000028F8D110BD0000000C0140504341536C
:1032300030312C31000000005043415330322C31EA
:10324000303030005043415330342C330000000004
:1032500048010020B800002070B58EB00646057801
:10326000012403E0305D4540641CE4B28C42F9D394
:1032700034216846FCF7D5FF2B46324607A1684645
:1032800000F078FB6846FCF7E9FF82B24FF47A73EE
:1032900069460548FFF703FD0EB070BD2425732A6B
:1032A000253032580D0A0000B800002010B5C420A7
:1032B00000F026F80446C52000F022F804EB0024B4
:1032C000C62000F01DF804EB004010BD10B50B4CFB
:1032D000002220212046FEF7CDFC0320FEF790F9C6
:1032E0000021C32000F036F8012220212046FEF7FD
:1032F000C1FCBDE810400A20FEF782B9000C014075
:103300007FB504460020114D8DF80C0002462021A7
:103310002846FEF7AFFC0320FEF772F901214FF4B7
:103320007A7203A88DE807000B4622464F21084811
:10333000FEF770FD012220212846FEF79BFC0A20A3
:10334000FEF75EF99DF80C0004B070BD000C014062
:103350001C0000207FB504460D46C320FFF7D0FFB8
:103360008DF80C00012D10D030EA04008DF80C000F
:1033700001214FF47A7203A88DE807000B46C3229F
:103380004E210348FEF774FE7FBD2043EEE70000A8
:103390001C000020074910B50880002808D04FF411
:1033A0008074224604490548FFF740FA0028F8D106
:1033B00010BD000012000020480500200001002080
:1033C00010B500F075F84FF48074224605490648A0
:1033D000FFF72CFA0028F8D1BDE81040072103A020
:1033E00000F008B8480500200001002041542B528D
:1033F000420D0A002DE9F05F4FF480798A4683463A
:103400004E4649462348FCF70CFF234C4FF000087A
:103410004546A4F8008031462048FCF702FF4FF4EF
:103420007A7765803B46524659461D48FFF737FC80
:103430005FF00405FEF724FC0646208838B9FEF745
:103440001FFC801BB842F8D32088002820D01348E6
:103450006188228808440F49FCF7CAFE60882188E9
:103460000844608049460B48FCF7DBFE6D1E2DB218
:10347000A4F80080002D0BD00AA10848FCF7DCFE60
:10348000002805D108A10548FCF7D6FE0028D1D0B8
:10349000BDE8F09F480500201200002048060020EB
:1034A000000100204F4B00004552524F52000000D7
:1034B00070B50122074D540321462846FEF7DAFB7A
:1034C0000320FEF792F821462846BDE8704000220E
:1034D000FEF7D0BB000C014030B585B000241F487A
:1034E0000094019402940394816941F01001816178
:1034F000816901F010010491816941F0200181612D
:10350000816901F020010491816941F00401816128
:10351000816901F004010491816941F00801816130
:1035200080690F4D00F008000490002242F208016B
:103530002846FEF79FFB012220212846FEF79AFB32
:1035400042F2280000900120CDE9010403200390FD
:1035500069462846FEF79EFA05B030BD00100240CD
:10356000000C01400D4810B50B4901600C49416049
:1035700000214FF480428160C0E903124161816102
:10358000C1610162FEF782FB002803D0BDE8104054
:10359000FEF7FDB910BD0000005400401C000020E3
:1035A000A08601000C4810B50A4901604FF4E131D2
:1035B0004160002181600C22C160C0E90412816178
:1035C000C161FFF7A5FA002803D0BDE81040FEF75F
:1035D000DEB910BD00380140700000200C4810B565
:1035E0000A4901604FF416514160002181600C22AC
:1035F000C160C0E904128161C161FFF789FA002846
:1036000003D0BDE81040FEF7C2B910BD0044004031
:10361000B80000200C4810B50A4901604FF416515B
:103620004160002181600C22C160C0E90412816107
:10363000C161FFF76DFA002803D0BDE81040FEF726
:10364000A6B910BD0048004000010020FEE7FEE7DB
:1036500070477047FEF7D2BD30B58FB0282168465D
:10366000FCF7DFFD14210AA8FCF7DBFD01210804AB
:10367000CDE900100024029402250491CDE9075001
:103680004FF4E01009906846FEF72CFF08B172B6BF
:10369000FEE70F20CDE90A054FF48060CDE90C402C
:1036A00002210AA80E94FEF741FE002801D072B64E
:1036B000FEE70FB030BD704710B5406A0021C185EC
:1036C000C184FFF7EDF810BD01680C3151E8002FFF
:1036D00022F4907241E80023002BF5D101681431E7
:1036E00051E8002F22F0010241E80023002BF5D120
:1036F000016B012909D101680C3151E8002F22F03A
:10370000100241E80023002BF5D1202180F842105F
:1037100000210163704708B590F84210222901D0BA
:10372000022008BD82684FF480539A4201D101699A
:1037300021B1816A9A421BD04AB10AE00268816ACB
:103740005268C2F308020A80816A891C08E0026993
:1037500072B10268526802F07F020A70816A491CE5
:103760008162C18D491E0904090CC18503D01BE08B
:1037700002685268F1E70168CA6822F02002CA6054
:103780000168CA6822F48072CA6001684A6922F03E
:1037900001024A61202180F8421000214163026B3E
:1037A000012A03D0FFF77AFA002008BD01630168FF
:1037B0000C3151E8002F22F0100241E80023002BC9
:1037C000F5D101680A68D20602D50A6849680091F5
:1037D000818DFFF753F8E7E770B50446006801698B
:1037E000E26821F44051114301612169A068084356
:1037F000616908432168CA6841F20C639A43024335
:10380000CA6020684169A26921F440711143416195
:103810001E492068884202D1FEF72EFE01E0FEF725
:103820001BFE00EBC00101EB001260686421800008
:10383000B2FBF0F3B3FBF1F36FF018067343B2FB86
:10384000F0F5B2FBF0F605EB8305322303EB05152B
:10385000B5FBF1F5B6FBF1F605F0F00505EB061545
:10386000B2FBF0F6B2FBF0F0B0FBF1F06FF0180233
:10387000504306EB800003EB0010B0FBF1F0216831
:1038800000F00F002844886070BD0000003801403F
:1038900081628285C28500214164222180F8421024
:1038A000016921B10168CA6842F48072CA60016886
:1038B0004A6942F001024A610068C16841F0200192
:1038C000C160002070472DE9F843984617460D4621
:1038D0000446089E24E0701C22D0FEF7D1F9A0EB2C
:1038E0000800B0421AD8CEB12068C168490717D580
:1038F000802D15D0402D13D00168C94309070FD47E
:1039000001680025406800902046FFF7DDFE082092
:10391000606484F840500120BDE8F8830320FBE791
:103920002068006835EA000004D00020B842D2D0F8
:103930000020F1E70120F9E70148FEF7B3BF0000DE
:10394000B80000200148FEF7ADBF000000010020D4
:10395000FEE700000FB4054B10B503A9044A029816
:1039600000F006F910BC5DF814FB0000814200086D
:10397000180000200FB4084B10B504A902AA039840
:1039800000F0F6F8044602A9002000F074FC20467E
:1039900010BC5DF814FB0000774200080907090E0F
:1039A000002804DB00F1E02080F80014704700F0EC
:1039B0000F0000F1E02080F8141D704702E008C8F5
:1039C000121F08C1002AFAD170477047002001E099
:1039D00001C1121F002AFBD1704700002DE9FF5FD3
:1039E00082B00021DDE90430020DDDF840B0034370
:1039F00018D044F61050A2F2FF3242431514119829
:103A000001281FD0A5EB0B00401C5FEA000A4FF015
:103A100000064E4FDFF83891B046504615D5CAF132
:103A2000000413E0119801244AA3012801D16FEA90
:103A30000B010298119AC0E90031C0E9024206B0B8
:103A4000BDE8F09FCBF10000DFE704460021404ACB
:103A5000491842EB0450CDE9001012E0E00707D00E
:103A600032463B4640464946FCF7F5FF80468946CC
:103A700032463B4610461946FCF7EDFF06460F4618
:103A80006410002CEAD1DDE90401DDE90023BAF17C
:103A9000000F06DAFCF7DFFF42464B46FCF7DBFF80
:103AA00005E0FDF74AF842464B46FDF746F8044666
:103AB0000E460022284BFDF7BFFA03D84FF0FF3027
:103AC000014607E00022254B20463146FCF71CFF4B
:103AD000FDF79AFA102409E0002C0ADB0A220023E1
:103AE000FDF712F9039B30321A55641E50EA0102A9
:103AF000F2D1641C039AC4F111031444119A012AEF
:103B000003D0012208430DD10AE0084304D000206D
:103B10004FF0110B119072E7A3EB0B056D1E0DE03A
:103B20005B4504DD4FF0000205F1010504E003DA16
:103B30004FF00002A5F10105002AECD0029811997E
:103B4000C0E90231C0E9004579E7000000001440F7
:103B50000000F03F300000000000F0430000E03FB4
:103B600030380A2801D20120704700207047000039
:103B70002DE9FF4F95B09A46884606460025EEE1AE
:103B8000252877D100242746F94A0121039400E033
:103B9000044316F8013F203B01FA03F01042F7D12D
:103BA00030782A2811D06FF02F033078A0F130023E
:103BB000092A16D8039A44F0020402EB820203EBAE
:103BC00042021044761C0390EFE758F8042B03924E
:103BD000002A03DA504244F40054039044F00204F3
:103BE000761C30782E2816D116F8010F44F0040404
:103BF0002A280DD06FF02F023078A0F13003092B66
:103C000009D807EB870302EB4303C718761CF3E7D9
:103C100058F8047B761C30786C280FD006DC4C28D2
:103C200017D068280DD06A2814D104E0742810D069
:103C30007A280FD10DE044F400140AE044F4801413
:103C400001E044F440147278824202D104F58014F9
:103C5000761C761C307866280BD013DC582877D079
:103C600009DC002875D04528F6D04628F4D047282E
:103C70001AD193E118E0632835D0642879D06528FB
:103C800012D18BE1702873D008DC6728F1D0692845
:103C90006FD06E280DD06F2806D1ACE073282CD0E1
:103CA000752874D0782853D05246179990476D1CC8
:103CB00054E1C4F30250022809D003280DD0D8F8EB
:103CC000001004280DD00D6008F1040846E1D8F872
:103CD0000010EA17C1E90052F6E7D8F800100D808D
:103CE000F2E70D70F0E718F8041B8DF800100020C3
:103CF0008DF80100EB46012003E058F804BB4FF0BB
:103D0000FF3061074FF0000102D40DE009F101011D
:103D10008946B9420FDA8145F8DB1BF80910002902
:103D2000F4D108E009F1010189468142FADB1BF870
:103D300009100029F6D103985346A0EB0907214644
:103D40003846179A00F080FA284400EB090507E08E
:103D500044E008E10DE01BF8010B5246179990472B
:103D6000B9F10109F7D2534621463846179AF2E0D5
:103D700039E00A21C4F302524FF0000B0091022AED
:103D800006D058F8040BC117032A09D00AE023E033
:103D900008F1070020F00702F2E80201904605E072
:103DA00000B2C117042A01D140B2C117002906DAB6
:103DB0000A460021404261EB02012D2202E0220569
:103DC00004D52B228DF80420012203E0E20701D064
:103DD0002022F7E7914657E00A2100E010214FF03A
:103DE000000B00910BE010214FF0000B44F0040495
:103DF0000827009103E008204FF0000B0090C4F367
:103E00000252022A05D058F8040B0021032A08D0D8
:103E100008E008F1070020F00702F2E802019046EE
:103E200003E080B2042A00D1C0B24FF0000922079B
:103E30002AD53278702A07D0DDF800C08CF0100C3B
:103E40005CEA0B0C05D00EE040228DF80420012224
:103E500008E050EA010306D030238DF804308DF8D5
:103E6000052002229146009B83F0080353EA0B03CE
:103E70000AD150EA010201D1620705D530228DF83E
:103E800004204FF001097F1E3278582A04D039A24D
:103E90000C920CAA02920BE03BA2F9E75B46009A57
:103EA000FCF732FF0C9B9B5C029A521E029213702D
:103EB00050EA0102F2D1029804A9081A00F1200B7D
:103EC000600702D524F4803400E001275F4502DD5D
:103ED000A7EB0B0000E0002000EB0B010090039823
:103EE0004944401A0390E00306D453462146179AEA
:103EF000039800F0A9F90544002706E001A85246FE
:103F0000C05D179990476D1C7F1C4F45F6DBE003A1
:103F10000CD553462146179A039800F095F90544AD
:103F200004E030205246179990476D1C0099481EB6
:103F300000900029F5DC08E00298029952460078CA
:103F4000491C0291179990476D1CBBF10001ABF120
:103F5000010BF1DC5BE100F065F90544761C30787B
:103F600000287FF40DAE19B02846BDE8F08F0000A0
:103F7000092801003031323334353637383961623F
:103F80006364656600000000303132333435363703
:103F9000383941424344454600000000600700D4E0
:103FA000062708F1070020F00700F0E8022380460A
:103FB00003F0004C5FEA0C0001D097A009E0200557
:103FC00001D596A005E0E00701D095A001E0AFF291
:103FD0004C001390307823F0004365280CD006DCA9
:103FE000452809D046281DD047287FD13BE06628C8
:103FF00018D067287AD136E00021112F01DB11207B
:1040000000E0781CCDE9000104A90CA8FFF7E6FC4C
:10401000DDE90D010C9A4FF0000B07F10109109238
:1040200000914EE04FF000400097CDE9011004A947
:104030000CA8FFF7D3FCDDE90D020C9B0F994FF0A4
:10404000000B91461093009211B9791C00EB010905
:10405000B7EB090003D4C0F1FF3B07F10109A9EB5D
:104060000700019042E0012F00DA01270021112F03
:1040700001DD112000E03846CDE9000104A90CA8BB
:10408000FFF7ACFCDDE90D010C9A00914FF0000B3D
:10409000B946109221070FD4009A4A4503DA914697
:1040A00001E0A9F10109B9F1010F05DD109AA9F1AB
:1040B0000101515C3029F4D0B84202DA10F1040F4A
:1040C00003DA0121CDE9011010E0002803DC83446C
:1040D000A9EB000102E0411C494500DD8946A0EB47
:1040E0000B00401C01904FF000400290200705D4C7
:1040F0000198484502DB4FF0FF30019000208DF819
:104100004B0002980DF14B07B0F1004F25D0022073
:104110000C902B200D90029800280CDA404202905F
:104120002D200D9007E00A210298FCF7D7FD3031D1
:10413000029007F8011D0C99481E0C900029F2DC32
:1041400002980028EFD1791E0D980870307800F0A1
:10415000200040F0450007F8020D11A8C01BC01D4B
:1041600002901398007800B1012000EB090101983A
:1041700001EBE071029801440398401A401E03903D
:10418000E00306D453462146179A039800F05CF8E2
:1041900005441398007818B15246179990476D1C42
:1041A000E00323D553462146179A039800F04CF8B4
:1041B00005441BE0BBF1000F07DB0098584504DD08
:1041C0001098179910F80B0001E01799302052460B
:1041D000904701980BF1010B401E05F1010501907C
:1041E00004D12E205246179990476D1CB9F1000159
:1041F000A9F10109DEDC05E017F8010B5246179919
:1042000090476D1C0299481E02900029F4DC534629
:104210002146179A03989EE62D0000002B0000000F
:10422000200000002DE9F041044600251E461746F7
:10423000880404D405E039462020B0476D1C641E74
:10424000F9D52846BDE8F0812DE9F0410446002566
:104250001E469046C80301D5302700E02027880479
:1042600004D505E041463846B0476D1C641EF9D5BB
:104270002846BDE8F0810A68531C0B601070704737
:1042800013B54FF47A73012269460248FEF707FD21
:104290001CBD000070000020FDF7B8FFFFF7DCF93F
:1042A000FFF71AF9FFF77EF9FFF75CF9FFF796F9C8
:1042B000FFF7B0F9FDF736F9FDF73EF9FEE7010229
:1042C00002030405060708090A0B0C0D0E0F101057
:1042D00000000000000000000102030406070809B6
:1042E00000000000010203047845000808460008A9
:1042F00038440008E0440008F4430008784300080C
:10430000BC430008C4450008584500086C44000838
:10431000B8440008304500081045000800000000BF
:104320001F1C1F1E1F1E1F1F1E1F1E1F1F1D1F1EA7
:104330001F1E1F1F1E1F1E1FDDDDDDDDDCBBBBDDE5
:10434000DDDDDDDDDDDDDDDD988888888888888835
:104350007777777777888888855555566666666655
:104360006666666666688888833333322222222234
:10437000222222222228888D2447504753562C334C
:104380002C322C31312C31322C31342C3233372C2D
:1043900031372C31332C32332C3137362C2C31350C
:1043A0002C30352C3230342C2C31392C30382C3107
:1043B00035322C2C302A363000000000244750477C
:1043C00053562C332C332C31312C32302C37352CA6
:1043D0003332372C2C32352C31332C3236352C32CB
:1043E000332C32392C32382C3331342C2C302A35C2
:1043F000310000002447504753562C332C312C31C8
:10440000312C30352C35342C3236332C32342C30A0
:10441000362C33322C3039382C2C30392C32302C8D
:104420003034332C2C31312C36382C3036312C2C86
:10443000302A36310000000024474E4753412C41BA
:104440002C332C30352C31322C32352C2C2C2C2C7E
:104450002C2C2C2C2C32352E352C32352E352C3262
:10446000352E352C312A30320000000024474E52C0
:104470004D432C3037303832322E3030302C412CF6
:10448000343030362E38313838382C4E2C313136E5
:1044900032312E38393431332C452C302E38312CF2
:1044A0003335392E30322C3035313032352C2C2CFE
:1044B000412C562A3032000024474E5654472C33A4
:1044C00035392E30322C542C2C4D2C302E38312CAA
:1044D0004E2C312E35312C4B2C412A32320000002B
:1044E00024474E4753412C412C332C31302C31334F
:1044F0002C2C2C2C2C2C2C2C2C2C2C32352E352CE2
:1045000032352E352C32352E352C342A30350000FC
:104510002447505458542C30312C30312C30312C0D
:10452000414E54454E4E41204F50454E2A323500A3
:1045300024474E5A44412C3037303832322E3030F6
:10454000302C30322C30362C323032342C30302C6F
:1045500030302A34370000002442444753562C326E
:104560002C322C30352C33382C37322C3332362C3D
:104570002C302A343800000024474E4747412C3065
:1045800037303832322E3030302C343030362E380E
:10459000313838382C4E2C31313632312E383934CE
:1045A00031332C452C312C30352C32352E352C33F3
:1045B000302E322C4D2C2D392E362C4D2C2C2A35CC
:1045C000380000002442444753562C322C312C3002
:1045D000352C30382C36342C3330312C2C31302CD7
:1045E00034372C3231362C31352C31332C35362CB6
:1045F0003238332C31302C32372C35392C3133339F
:104600002C2C302A3738000024474E474C4C2C3491
:104610003030362E38313838382C4E2C3131363255
:10462000312E38393431332C452C30373038323252
:104630002E3030302C412C412A3439005C460008A1
:10464000000000201C000000BC390008784600086B
:104650001C000020840F0000CC390008010000007D
:10466000100000000000000000127A0000000000AE
:08467000000000000000000042
:04000005080000ED02
:00000001FF
